<!DOCTYPE html>
<html lang="en">
    <head>
        <meta charset="utf-8" />
        <meta http-equiv="X-UA-Compatible" content="IE=edge" />
        <meta name="viewport" content="width=device-width, initial-scale=1" />
        <link rel="stylesheet" href="https:&#x2F;&#x2F;eips.ethereum.com&#x2F;minima.css">

        <!-- opengraph -->
        <meta property="og:locale" content="en_US" />
        <meta property="og:url" content="https:&#x2F;&#x2F;eips.ethereum.com" />
        <meta property="og:site_name" content="Ethereum Improvement Proposals" />

        <!-- twitter -->
        <meta name="twitter:card" content="summary" />
        <meta name="twitter:site" content="@ethereum" />

        <script type="application/ld+json">
            {
              "@type": "WebSite",
              "url": "https:&#x2F;&#x2F;eips.ethereum.com",
              "name": "Ethereum Improvement Proposals",
              "description": "Description",
              "@context": "https://schema.org"
            }
        </script>

        

        

<title>EIP-155: Simple replay attack protection</title>
<link rel="canonical" href="https:&#x2F;&#x2F;eips.ethereum.comEIPS&#x2F;eip-155.md" />
<meta property="og:title" content="EIP-155: Simple replay attack protection" />
<meta
    name="description"
    content="Details on Ethereum Improvement Proposal 155 (EIP-155): Simple replay attack protection"
/>
<meta
    property="og:description"
    content="Details on Ethereum Improvement Proposal 155 (EIP-155): Simple replay attack protection"
/>
<meta property="og:url" content="https:&#x2F;&#x2F;eips.ethereum.comEIPS&#x2F;eip-155.md" />
<meta name="twitter:description" content="Details on Ethereum Improvement Proposal 155 (EIP 155): Simple replay attack protection" />

    </head>
    <body>
        <header class="site-header">
            <div class="wrapper">
                <a class="site-title" rel="author" href="https:&#x2F;&#x2F;eips.ethereum.com">Ethereum Improvement Proposals</a>
                <nav class="site-nav">
                    <input type="checkbox" id="nav-trigger" class="nav-trigger" />
                    <label for="nav-trigger">
                        <span class="menu-icon">
                            <svg viewBox="0 0 18 15" width="18px" height="15px">
                                <path d="M18,1.484c0,0.82-0.665,1.484-1.484,1.484H1.484C0.665,2.969,0,2.304,0,1.484l0,0C0,0.665,0.665,0,1.484,0 h15.032C17.335,0,18,0.665,18,1.484L18,1.484z M18,7.516C18,8.335,17.335,9,16.516,9H1.484C0.665,9,0,8.335,0,7.516l0,0 c0-0.82,0.665-1.484,1.484-1.484h15.032C17.335,6.031,18,6.696,18,7.516L18,7.516z M18,13.516C18,14.335,17.335,15,16.516,15H1.484 C0.665,15,0,14.335,0,13.516l0,0c0-0.82,0.665-1.483,1.484-1.483h15.032C17.335,12.031,18,12.695,18,13.516L18,13.516z"/>
                            </svg>
                        </span>
                    </label>

                    <div class="trigger">
                        
                            <a class="page-link" href="&#x2F;all">All</a>
                        
                            <a class="page-link" href="&#x2F;core">Core</a>
                        
                            <a class="page-link" href="&#x2F;networking">Networking</a>
                        
                            <a class="page-link" href="&#x2F;interface">Interface</a>
                        
                            <a class="page-link" href="&#x2F;erc">ERC</a>
                        
                            <a class="page-link" href="&#x2F;meta">Meta</a>
                        
                            <a class="page-link" href="&#x2F;informational">Informational</a>
                        
                    </div>
                </nav>
            </div>
        </header>
        <main class="page-content" aria-label="Content">
            <div class="wrapper">
                
<div class="home">
    <h1 class="page-heading">
        EIP-155: Simple replay attack protection
        <a href=""><svg role="img" aria-label="Source" xmlns="https://www.w3.org/2000/svg" width="14" height="16" viewBox="0 0 14 16"><title>Source</title><path fill-rule="evenodd" d="M9.5 3L8 4.5 11.5 8 8 11.5 9.5 13 14 8 9.5 3zm-5 0L0 8l4.5 5L6 11.5 2.5 8 6 4.5 4.5 3z"/></svg></a>
    </h1>
    <table>
        <tr>
            <th>Author</th>
            <td>
    
        
        
            <a href="https://github.com/vbuterin">Vitalik Buterin</a>
        
    
</td>
        </tr>

        

        <tr>
            <th>Status</th>
            <td>
                Final
                
            </td>
        </tr>

        <tr>
            <th>Type</th>
            <td>Standards Track</td>
        </tr>

        
          <tr>
              <th>Category</th>
              <td>Core</td>
          </tr>
        

        <tr>
            <th>Created</th>
            <td>2016-10-14</td>
        </tr>

        

        

        

        

        
  </table>

  
    <h3 id="hard-fork">Hard fork</h3>
<p><a href="https://github.com/ethereum/EIPs/blob/master/EIPS/eip-607.md">Spurious Dragon</a></p>
<h3 id="parameters">Parameters</h3>
<ul>
<li><code>FORK_BLKNUM</code>: 2,675,000</li>
<li><code>CHAIN_ID</code>: 1 (main net)</li>
</ul>
<h3 id="specification">Specification</h3>
<p>If <code>block.number &gt;= FORK_BLKNUM</code> and <code>CHAIN_ID</code> is available, then when computing the hash of a transaction for the purposes of signing, instead of hashing only six rlp encoded elements <code>(nonce, gasprice, startgas, to, value, data)</code>, you <strong>SHOULD</strong> hash nine rlp encoded elements <code>(nonce, gasprice, startgas, to, value, data, chainid, 0, 0)</code>.  If you do, then the <code>v</code> of the signature <strong>MUST</strong> be set to <code>{0,1} + CHAIN_ID * 2 + 35</code> where <code>{0,1}</code> is the parity of the <code>y</code> value of the curve point for which <code>r</code> is the x-value in the secp256k1 signing process.  If you choose to only hash 6 values, then <code>v</code> continues to be set to <code>{0,1} + 27</code> as previously.</p>
<p>If <code>block.number &gt;= FORK_BLKNUM</code> and <code>v = CHAIN_ID * 2 + 35</code> or <code>v = CHAIN_ID * 2 + 36</code>, then when computing the hash of a transaction for purposes of recovering, instead of hashing six rlp encoded elements <code>(nonce, gasprice, startgas, to, value, data)</code>, hash nine rlp encoded elements <code>(nonce, gasprice, startgas, to, value, data, chainid, 0, 0)</code>. The currently existing signature scheme using <code>v = 27</code> and <code>v = 28</code> remains valid and continues to operate under the same rules as it did previously.</p>
<h3 id="example">Example</h3>
<p>Consider a transaction with <code>nonce = 9</code>, <code>gasprice = 20 * 10**9</code>, <code>startgas = 21000</code>, <code>to = 0x3535353535353535353535353535353535353535</code>, <code>value = 10**18</code>, <code>data=''</code> (empty).</p>
<p>The &quot;signing data&quot; becomes:</p>
<pre style="background-color:#2b303b;">
<code><span style="color:#c0c5ce;">0xec098504a817c800825208943535353535353535353535353535353535353535880de0b6b3a764000080018080
</span></code></pre>
<p>The &quot;signing hash&quot; becomes:</p>
<pre style="background-color:#2b303b;">
<code><span style="color:#c0c5ce;">0xdaf5a779ae972f972197303d7b574746c7ef83eadac0f2791ad23db92e4c8e53
</span></code></pre>
<p>If the transaction is signed with the private key <code>0x4646464646464646464646464646464646464646464646464646464646464646</code>, then the v,r,s values become:</p>
<pre style="background-color:#2b303b;">
<code><span style="color:#c0c5ce;">(37, 18515461264373351373200002665853028612451056578545711640558177340181847433846, 46948507304638947509940763649030358759909902576025900602547168820602576006531)
</span></code></pre>
<p>Notice the use of 37 instead of 27. The signed tx would become:</p>
<pre style="background-color:#2b303b;">
<code><span style="color:#c0c5ce;">0xf86c098504a817c800825208943535353535353535353535353535353535353535880de0b6b3a76400008025a028ef61340bd939bc2195fe537567866003e1a15d3c71ff63e1590620aa636276a067cbe9d8997f761aecb703304b3800ccf555c9f3dc64214b297fb1966a3b6d83
</span></code></pre><h3 id="rationale">Rationale</h3>
<p>This would provide a way to send transactions that work on Ethereum without working on ETC or the Morden testnet. ETC is encouraged to adopt this EIP but replacing <code>CHAIN_ID</code> with a different value, and all future testnets, consortium chains and alt-etherea are encouraged to adopt this EIP replacing <code>CHAIN_ID</code> with a unique value.</p>
<h3 id="list-of-chain-id-s">List of Chain ID's:</h3>
<table><thead><tr><th><code>CHAIN_ID</code></th><th>Chain(s)</th></tr></thead><tbody>
<tr><td>1</td><td>Ethereum mainnet</td></tr>
<tr><td>2</td><td>Morden (disused), Expanse mainnet</td></tr>
<tr><td>3</td><td>Ropsten</td></tr>
<tr><td>4</td><td>Rinkeby</td></tr>
<tr><td>5</td><td>Goerli</td></tr>
<tr><td>42</td><td>Kovan</td></tr>
<tr><td>1337</td><td>Geth private chains (default)</td></tr>
</tbody></table>
<p>Find more chain ID's on <a href="https://chainid.network">chainid.network</a> and contribute to <a href="https://github.com/ethereum-lists/chains">ethereum-lists/chains</a>.</p>



            </div>
        </main>


        <footer class="site-footer h-card">
            <div class="wrapper">
                <h2 class="footer-heading">Ethereum Improvement Proposals</h2>
                <div class="footer-col-wrapper">
                    <div class="footer-col footer-col-1">
                        <ul class="contact-list">
                            <li class="p-name">
                                
                                GitHub User
                                
                            </li>
                            <li>
                                <a class="u-email" href="mailto:your-email@domain.com">
                                  your-email@domain.com
                                </a>
                              </li>
                            </ul>
                    </div>
                    <div class="footer-col footer-col-3">
                        <p>Description</p>
                    </div>
                </div>
            </div>
        </footer>
    </body>
</html>
